:020000040800F2
:1000000000500020C11B0008D1190008D7190008B2
:10001000DD190008E3190008E919000800000000D4
:10002000000000000000000000000000EF190008C0
:10003000FB19000800000000071A0008131A000846
:10004000091C0008091C0008091C0008091C0008FC
:10005000091C0008091C0008091C0008091C0008EC
:10006000091C0008091C0008091C0008211A0008C6
:10007000091C0008091C0008091C0008091C0008CC
:10008000091C0008091C0008091C0008091C0008BC
:10009000091C0008091C0008091C0008091C0008AC
:1000A000091C0008091C0008091C0008091C00089C
:1000B000091C0008091C0008091C0008091C00088C
:1000C000091C0008091C0008091C0008091C00087C
:1000D000091C0008091C0008091C0008091C00086C
:1000E000091C0008091C0008091C00080000000089
:1000F0000000000000000000000000000000000000
:0C01000000000000000000005FF808F1A3
:1001100010B5054C237833B9044B13B10448AFF341
:1001200000800123237010BDDC01002000000000CE
:10013000786A000808B5034B1BB103490348AFF3C5
:10014000008008BD00000000E0010020786A00087F
:10015000034613F8012B002AFBD1181A0138704707
:1001600081F0004102E000BF83F0004330B54FEA68
:1001700041044FEA430594EA050F08BF90EA020FD5
:100180001FBF54EA000C55EA020C7FEA645C7FEA68
:10019000655C00F0E2804FEA5454D4EB5555B8BF8B
:1001A0006D420CDD2C4480EA020281EA030382EAFC
:1001B000000083EA010180EA020281EA0303362D8E
:1001C00088BF30BD11F0004F4FEA01314FF4801C61
:1001D0004CEA113102D0404261EB410113F0004F73
:1001E0004FEA03334CEA133302D0524263EB43032A
:1001F00094EA050F00F0A780A4F10104D5F1200EC8
:100200000DDB02FA0EFC22FA05F2801841F1000122
:1002100003FA0EF2801843FA05F359410EE0A5F1F6
:1002200020050EF1200E012A03FA0EFC28BF4CF027
:10023000020C43FA05F3C01851EBE37101F00045DD
:1002400007D54FF0000EDCF1000C7EEB00006EEBEA
:100250000101B1F5801F1BD3B1F5001F0CD3490874
:100260005FEA30004FEA3C0C04F101044FEA4452CB
:1002700012F5800F80F09A80BCF1004F08BF5FEA52
:10028000500C50F1000041EB045141EA050130BD32
:100290005FEA4C0C404141EB0101013C28BFB1F544
:1002A000801FE9D291F0000F04BF01460020B1FA8F
:1002B00081F308BF2033A3F10B03B3F120020CDA62
:1002C0000C3208DD02F1140CC2F10C0201FA0CF040
:1002D00021FA02F10CE002F11402D8BFC2F1200CA5
:1002E00001FA02F120FA0CFCDCBF41EA0C0190405B
:1002F000E41AA2BF01EB0451294330BD6FEA0404A4
:100300001F3C1CDA0C340EDC04F11404C4F120028E
:1003100020FA04F001FA02F340EA030021FA04F3A0
:1003200045EA030130BDC4F10C04C4F1200220FAF7
:1003300002F001FA04F340EA0300294630BD21FA35
:1003400004F0294630BD94F0000F83F4801306BFFB
:1003500081F480110134013D4EE77FEA645C18BFEF
:100360007FEA655C29D094EA050F08BF90EA020F86
:1003700005D054EA000C04BF1946104630BD91EA7E
:10038000030F1EBF0021002030BD5FEA545C05D181
:100390004000494128BF41F0004130BD14F58004C0
:1003A0003CBF01F5801130BD01F0004545F0FE4134
:1003B00041F470014FF0000030BD7FEA645C1ABF69
:1003C000194610467FEA655C1CBF0B46024650EAA0
:1003D000013406BF52EA033591EA030F41F40021CC
:1003E00030BD00BF90F0000F04BF0021704730B552
:1003F0004FF4806404F132044FF000054FF0000127
:1004000050E700BF90F0000F04BF0021704730B5E7
:100410004FF4806404F1320410F0004548BF4042BC
:100420004FF000013EE700BF42004FEAE2014FEA11
:1004300031014FEA02701FBF12F07F4393F07F4FEC
:1004400081F06051704732F07F4208BF704793F0EF
:100450007F4F04BF41F40021704730B54FF4607402
:1004600001F0004521F000411CE700BF50EA010205
:1004700008BF704730B54FF000050AE050EA0102AE
:1004800008BF704730B511F0004502D5404261EB1E
:1004900041014FF4806404F132045FEA915C3FF45F
:1004A000D8AE4FF003025FEADC0C18BF03325FEAFC
:1004B000DC0C18BF033202EBDC02C2F1200300FAAD
:1004C00003FC20FA02F001FA03FE40EA0E0021FAD2
:1004D00002F11444BDE600BF70B54FF0FF0C4CF4C0
:1004E000E06C1CEA11541DBF1CEA135594EA0C0F72
:1004F00095EA0C0F00F0DEF82C4481EA030621EAAD
:100500004C5123EA4C5350EA013518BF52EA0335E7
:1005100041F4801143F4801338D0A0FB02CE4FF099
:100520000005E1FB02E506F00042E0FB03E54FF0C9
:100530000006E1FB03569CF0000F18BF4EF0010EC1
:10054000A4F1FF04B6F5007F64F5407404D25FEABD
:100550004E0E6D4146EB060642EAC62141EA555170
:100560004FEAC52040EA5E504FEACE2EB4F1FD0CB2
:1005700088BFBCF5E06F1ED8BEF1004F08BF5FEA30
:10058000500E50F1000041EB045170BD06F00046E2
:1005900046EA010140EA020081EA0301B4EB5C048F
:1005A000C2BFD4EB0C0541EA045170BD41F4801187
:1005B0004FF0000E013C00F3AB8014F1360FDEBFAC
:1005C000002001F0004170BDC4F10004203C35DA88
:1005D0000C341BDC04F11404C4F1200500FA05F30B
:1005E00020FA04F001FA05F240EA020001F00042AC
:1005F00021F0004110EBD37021FA04F642EB060122
:100600005EEA430E08BF20EAD37070BDC4F10C044B
:10061000C4F1200500FA04F320FA05F001FA04F20F
:1006200040EA020001F0004110EBD37041F10001FB
:100630005EEA430E08BF20EAD37070BDC4F1200506
:1006400000FA05F24EEA020E20FA04F301FA05F26E
:1006500043EA020321FA04F001F0004121FA04F216
:1006600020EA020000EBD3705EEA430E08BF20EAE6
:10067000D37070BD94F0000F0FD101F00046400020
:1006800041EB010111F4801F08BF013CF7D041EAA2
:10069000060195F0000F18BF704703F000465200A6
:1006A00043EB030313F4801F08BF013DF7D043EA77
:1006B0000603704794EA0C0F0CEA135518BF95EA2D
:1006C0000C0F0CD050EA410618BF52EA4306D1D1B4
:1006D00081EA030101F000414FF0000070BD50EAD3
:1006E000410606BF1046194652EA430619D094EA5D
:1006F0000C0F02D150EA013613D195EA0C0F05D147
:1007000052EA03361CBF104619460AD181EA03019A
:1007100001F0004141F0FE4141F470014FF0000052
:1007200070BD41F0FE4141F4780170BD70B54FF0ED
:10073000FF0C4CF4E06C1CEA11541DBF1CEA13556D
:1007400094EA0C0F95EA0C0F00F0A7F8A4EB05044F
:1007500081EA030E52EA03354FEA013100F0888046
:100760004FEA03334FF0805545EA131343EA12630F
:100770004FEA022245EA111545EA10654FEA0026C4
:100780000EF000419D4208BF964244F1FD0404F57D
:10079000407402D25B084FEA3202B61A65EB0305D9
:1007A0005B084FEA32024FF480104FF4002CB6EB96
:1007B000020E75EB030E22BFB61A754640EA0C0016
:1007C0005B084FEA3202B6EB020E75EB030E22BF56
:1007D000B61A754640EA5C005B084FEA3202B6EB97
:1007E000020E75EB030E22BFB61A754640EA9C0056
:1007F0005B084FEA3202B6EB020E75EB030E22BF26
:10080000B61A754640EADC0055EA060E18D04FEAE3
:10081000051545EA16754FEA06164FEAC30343EA83
:1008200052734FEAC2025FEA1C1CC0D111F4801F50
:100830000BD141EA00014FF000004FF0004CB6E749
:1008400011F4801F04BF01430020B4F1FD0C88BFE8
:10085000BCF5E06F3FF6AFAEB5EB030C04BFB6EBF3
:10086000020C5FEA500C50F1000041EB045170BDE6
:100870000EF0004E4EEA113114EB5C04C2BFD4EB13
:100880000C0541EA045170BD41F480114FF0000E97
:10089000013C90E645EA060E8DE60CEA135594EA13
:1008A0000C0F08BF95EA0C0F3FF43BAF94EA0C0F16
:1008B0000AD150EA01347FF434AF95EA0C0F7FF48B
:1008C00025AF104619462CE795EA0C0F06D152EADF
:1008D00003353FF4FDAE1046194622E750EA4106C3
:1008E00018BF52EA43067FF4C5AE50EA41047FF4D4
:1008F0000DAF52EA43057FF4EBAE12E74FF0FF3C39
:1009000006E000BF4FF0010C02E000BF4FF0010C09
:100910004DF804CD4FEA410C7FEA6C5C4FEA430C82
:1009200018BF7FEA6C5C1BD001B050EA410C0CBFD1
:1009300052EA430C91EA030F02BF90EA020F002033
:10094000704710F1000F91EA030F58BF994208BF9A
:1009500090422CBFD8176FEAE37040F00100704757
:100960004FEA410C7FEA6C5C02D150EA013C07D1AE
:100970004FEA430C7FEA6C5CD6D152EA033CD3D0F9
:100980005DF8040B704700BF8446104662468C46F3
:100990001946634600E000BF01B5FFF7B7FF002826
:1009A00048BF10F1000F01BD4DF808EDFFF7F4FF4F
:1009B0000CBF012000205DF808FB00BF4DF808EDDA
:1009C000FFF7EAFF34BF012000205DF808FB00BFFD
:1009D0004DF808EDFFF7E0FF94BF012000205DF81F
:1009E00008FB00BF4DF808EDFFF7CEFF94BF0120D4
:1009F00000205DF808FB00BF4DF808EDFFF7C4FFCD
:100A000034BF012000205DF808FB00BF4FEA410C15
:100A10007FEA6C5C02D150EA013C0AD14FEA430CF8
:100A20007FEA6C5C02D152EA033C02D14FF0000035
:100A300070474FF0010070474FEA410212F5001273
:100A400015D211D56FF47873B3EB625212D94FEA15
:100A5000C12343F0004343EA505311F0004F23FAFF
:100A600002F018BF404270474FF00000704750EA54
:100A7000013005D111F0004008BF6FF00040704711
:100A80004FF00000704700BF4FEA4102B2F1E0436F
:100A900024BFB3F5001CDCF1FE5C0DD901F0004C65
:100AA0004FEAC0024CEA5070B2F1004F40EB8300B5
:100AB00008BF20F00100704711F0804F21D113F1E1
:100AC0003872BCBF01F00040704741F480114FEA1A
:100AD0005252C2F11802C2F1200C10FA0CF320FAA3
:100AE00002F018BF40F001004FEAC1234FEAD323C0
:100AF00003FA0CFC40EA0C0023FA02F34FEA43032A
:100B0000CCE77FEA625307D150EA01331EBF4FF0B2
:100B1000FE4040F44000704701F0004040F0FE40CD
:100B200040F40000704700BF80F0004002E000BFCA
:100B300081F0004142001FBF5FEA410392EA030FC8
:100B40007FEA226C7FEA236C6AD04FEA1262D2EB12
:100B50001363C1BFD218414048404140B8BF5B4217
:100B6000192B88BF704710F0004F40F4000020F0B0
:100B70007F4018BF404211F0004F41F4000121F0C6
:100B80007F4118BF494292EA030F3FD0A2F1010210
:100B900041FA03FC10EB0C00C3F1200301FA03F14E
:100BA00000F0004302D5494260EB4000B0F5000F71
:100BB00013D3B0F1807F06D340084FEA310102F130
:100BC0000102FE2A51D2B1F1004F40EBC25008BFE2
:100BD00020F0010040EA03007047490040EB0000AC
:100BE000013A28BFB0F5000FEDD2B0FA80FCACF1AD
:100BF000080CB2EB0C0200FA0CF0AABF00EBC250DA
:100C000052421843BCBFD0401843704792F0000FC7
:100C100081F4000106BF80F400000132013BB5E71A
:100C20004FEA41037FEA226C18BF7FEA236C21D090
:100C300092EA030F04D092F0000F08BF08467047F5
:100C400090EA010F1CBF0020704712F07F4F04D1C3
:100C5000400028BF40F00040704712F100723CBFD6
:100C600000F50000704700F0004343F0FE4040F400
:100C7000000070477FEA226216BF08467FEA2363BE
:100C80000146420206BF5FEA412390EA010F40F4A9
:100C9000800070474FF0000304E000BF10F00043F5
:100CA00048BF40425FEA000C08BF704743F09643DC
:100CB00001464FF000001CE050EA010208BF7047F7
:100CC0004FF000030AE000BF50EA010208BF70477E
:100CD00011F0004302D5404261EB41015FEA010C93
:100CE00002BF84460146002043F0B64308BFA3F18B
:100CF0008053A3F50003BCFA8CF2083AA3EBC2536D
:100D000010DB01FA02FC634400FA02FCC2F120028B
:100D1000BCF1004F20FA02F243EB020008BF20F0C2
:100D20000100704702F1200201FA02FCC2F1200228
:100D300050EA4C0021FA02F243EB020008BF20EA1D
:100D4000DC7070474FF0FF3C06E000BF4FF0010C35
:100D500002E000BF4FF0010C4DF804CD4FEA400215
:100D60004FEA41037FEA226C18BF7FEA236C11D05F
:100D700001B052EA530C18BF90EA010F58BFB2EB12
:100D8000030088BFC81738BF6FEAE17018BF40F092
:100D9000010070477FEA226C02D15FEA402C05D146
:100DA0007FEA236CE4D15FEA412CE1D05DF8040BCB
:100DB000704700BF844608466146FFE70FB5FFF75E
:100DC000C9FF002848BF10F1000F0FBD4DF808ED16
:100DD000FFF7F4FF0CBF012000205DF808FB00BF07
:100DE0004DF808EDFFF7EAFF34BF012000205DF861
:100DF00008FB00BF4DF808EDFFF7E0FF94BF0120AE
:100E000000205DF808FB00BF4DF808EDFFF7D2FFAA
:100E100094BF012000205DF808FB00BF4DF808EDED
:100E2000FFF7C8FF34BF012000205DF808FB00BFBA
:100E300080B483B000AF786002E07B68013B7B60E8
:100E40007B68002BF9D100BF00BF0C37BD4680BCCA
:100E5000704780B500AF4FF47A70FFF7E9FF00BF2D
:100E600080BD000080B582B000AF0346FB71574BD8
:100E700004225A61554B02225A61544B10225A6186
:100E8000524B20225A61514B40225A614F4B8022D3
:100E90005A61FFF7DEFF4D4BDB684C4A43F002031B
:100EA000D360FB7903F01003002B03D0474B1022D3
:100EB0001A6103E0454B4FF480121A61FB7903F08D
:100EC0002003002B03D0414B20221A6103E03F4B4B
:100ED0004FF400121A61FB7903F04003002B03D09A
:100EE0003A4B40221A6103E0384B4FF480021A61FA
:100EF00097F90730002B03DA344B80221A6103E0A4
:100F0000324B4FF400021A61FFF7A3FF2F4B02226E
:100F10005A612E4B10225A612C4B20225A612B4BC6
:100F200040225A61294B80225A61FFF792FF274BDA
:100F3000DB68264A43F00203D360FB7903F0010328
:100F4000002B03D0214B10221A6103E01F4B4FF4FA
:100F500080121A61FB7903F00203002B03D01B4BB4
:100F600020221A6103E0194B4FF400121A61FB7939
:100F700003F00403002B03D0144B40221A6103E05A
:100F8000124B4FF480021A61FB7903F00803002B27
:100F900003D00E4B80221A6103E00C4B4FF4000289
:100FA0001A61FFF756FF094B02225A61074B1022C4
:100FB0005A61064B20225A61044B40225A61034B6E
:100FC00080225A6100BF0837BD4680BD000801403D
:100FD00080B582B000AF0346FB71594BDB68584ABD
:100FE00043F00403D360564B02225A61544B102243
:100FF0005A61534B20225A61514B40225A61504B47
:1010000080225A61FFF725FF4D4BDB684C4A43F0C5
:101010000203D360FB7903F01003002B03D0484B8D
:1010200010221A6103E0464B4FF480121A61FB79DB
:1010300003F02003002B03D0414B20221A6103E070
:101040003F4B4FF400121A61FB7903F04003002B71
:1010500003D03B4B40221A6103E0394B4FF480022E
:101060001A6197F90730002B03DA354B80221A6199
:1010700003E0334B4FF400021A61FFF7EAFE304BF6
:1010800002225A612E4B10225A612D4B20225A61A6
:101090002B4B40225A612A4B80225A61FFF7D9FE1E
:1010A000274BDB68264A43F00203D360FB7903F049
:1010B0000103002B03D0224B10221A6103E0204BC6
:1010C0004FF480121A61FB7903F00203002B03D066
:1010D0001B4B20221A6103E0194B4FF400121A61D6
:1010E000FB7903F00403002B03D0154B40221A6157
:1010F00003E0134B4FF480021A61FB7903F00803FD
:10110000002B03D00E4B80221A6103E00C4B4FF4EE
:1011100000021A61FFF79DFE094B02225A61084B3B
:1011200010225A61064B20225A61054B40225A6117
:10113000034B80225A6100BF0837BD4680BD00BF07
:101140000008014080B582B000AF786008E0FFF78A
:1011500080FE7B685A1C7A601B781846FFF738FFC0
:101160007B681B78002BF2D1FFF773FE00BF0837B6
:10117000BD4680BD80B582B000AF0346FB710B4613
:10118000BB7113467B71FA2000F0A2FD0220FFF72D
:1011900069FE322000F09CFDFA79BB791343DAB284
:1011A0007B791343DBB243F02003DBB21846FFF731
:1011B00059FE322000F08CFD0620FFF753FE32204E
:1011C00000F086FD0E20FFF74DFE322000F080FD7E
:1011D0000C20FFF747FE322000F07AFD0120FFF7D8
:1011E00041FE642000F074FD00BF0837BD4680BD9D
:1011F00080B582B000AF03460A46FB711346BB714F
:10120000FB79012B06D1BB797F33DBB21846FFF7A0
:1012100029FE08E0FB79022B05D1BB79413BDBB20B
:101220001846FFF71FFE00BF0837BD4680BD80B5DA
:1012300082B000AF03463A60FB710B46BB71BA79CE
:10124000FB7911461846FFF7D3FF3868FFF77AFF9E
:1012500000BF0837BD4680BD80B500AF0120FFF755
:1012600001FE022000F034FD00BF80BD0000000040
:1012700080B586B000AF78607B68574A934240F0F3
:101280008C80564B1B68FB82FB8A1846FFF702FDD9
:1012900003461846FFF7C8F843A3D3E90023FFF736
:1012A0001BF902460B46104619464FF000024C4B04
:1012B000FFF73CFA02460B46104619463CA3D3E919
:1012C0000023FFF709F902460B4610461946FFF7BF
:1012D000DBFB0346434A1360404B5B68BB82BB8A1F
:1012E0001846FFF7D7FC03461846FFF79DF832A3D0
:1012F000D3E90023FFF7F0F802460B4610461946E3
:1013000002460B46FEF732FF02460B4610461946D0
:101310004FF00002324BFFF709FA02460B46104627
:10132000194627A3D3E90023FFF7D6F802460B4658
:1013300010461946FFF7A8FB03463B613869FFF7E3
:1013400073F84FF00002284BFEF70EFF02460B46E3
:10135000104619461CA3D3E90023FFF7E7F902461C
:101360000B4610461946FFF78FFB03461F4A1360D2
:101370001A4B9B68FB81FB891846FFF743F814A3BF
:10138000D3E90023FFF7A8F802460B46104619469A
:10139000FFF77AFB0346164A136000BF1837BD46B5
:1013A00080BD00BFAFF300806666666666661A4061
:1013B000CDCCCCCCCCCCF43F6666666666660A4083
:1013C000666666666666EE3FAE47E17A14AEC73F74
:1013D000B81E85EB51B89E3FF8010020D4020020D2
:1013E0000000B040E402002000000440E0020020C1
:1013F000E802002080B500AF00F008FC00F08CF897
:1014000000F0B0F900F090F900F0E2F800F03CF9DB
:10141000344802F0BFF9082200210020FFF7AAFE9D
:10142000314A01210120FFF702FF4FF47A7000F0EA
:101430004FFCFFF711FF03222C492D4800F044FD1B
:101440002C4B1B681846FEF7EFFF02460B462A4955
:101450002A4803F099F8294A01210120FFF7E7FE05
:10146000274B1B681846FEF7DFFF02460B4625494F
:10147000224803F089F8214A01210220FFF7D7FE14
:101480004FF4FA6000F024FCFFF7E6FE1E4B1B68E9
:101490001846FEF7C9FF02460B461C49174803F0E1
:1014A00073F8164A01210120FFF7C1FE4FF4FA60DC
:1014B00000F00EFC0F4B1B6815491846FFF7AEFCF9
:1014C0000346002B06D001224FF48051114801F051
:1014D00065FCB5E700224FF480510E4801F05EFC38
:1014E000AEE700BF6C020020906A0008D402002022
:1014F000F8010020E40200209C6A0008B4020020E9
:10150000E0020020AC6A0008E8020020BC6A000883
:1015100000004040000C014080B594B000AF07F1DE
:10152000280328220021184602F0C6FB07F1140305
:1015300000221A605A609A60DA601A613B1D00222C
:101540001A605A609A60DA600123BB624FF48033FC
:10155000FB624FF400333B630123BB6302237B64D4
:101560004FF48033BB644FF43013FB6407F128035E
:10157000184601F02BFC0346002B01D000F052F975
:101580000F237B610223BB610023FB614FF4806367
:101590003B6200237B6207F114030221184601F02D
:1015A00097FE0346002B01D000F03CF902237B603C
:1015B0004FF48043FB603B1D184601F0E5FF0346F6
:1015C000002B01D000F02EF900BF5037BD4680BD82
:1015D00080B584B000AF3B1D00221A605A609A604B
:1015E000274B284A1A60264B4FF480729A60244B8E
:1015F00001221A73224B00221A75214B4FF46022EC
:10160000DA611F4B00225A601D4B03221A611C48ED
:1016100000F082FB0346002B01D000F003F9082301
:101620007B600123BB600723FB603B1D1946144808
:1016300000F03AFD0346002B01D000F0F3F8092337
:101640007B600223BB603B1D19460D4800F02CFD5A
:101650000346002B01D000F0E5F803237B60032351
:10166000BB603B1D1946064800F01EFD0346002BDB
:1016700001D000F0D7F800BF1037BD4680BD00BFD5
:10168000F80100200024014080B586B000AF07F1CA
:10169000080300221A605A609A60DA603B46002212
:1016A0001A605A601E4B1F4A1A601D4B33225A6043
:1016B0001B4B00229A601A4B4FF6FE72DA60184BF1
:1016C00000221A61164B00225A61154B00229A61C2
:1016D000134802F00FF80346002B01D000F0A2F8E7
:1016E0004FF48053BB6007F1080319460C4802F021
:1016F0009BF80346002B01D000F094F800233B60D8
:1017000000237B603B461946054802F04DFA03462C
:10171000002B01D000F086F800BF1837BD4680BD11
:101720006C020020002C014080B582B000AF0C4B51
:101730005B690B4A43F001035361094B5B6903F09A
:1017400001037B607B68002200210B2000F07DFFFD
:101750000B2000F096FF00BF0837BD4680BD00BFDC
:101760000010024080B588B000AF07F110030022DE
:101770001A605A609A60DA60274B9B69264A43F0E8
:1017800020039361244B9B6903F02003FB60FB68FB
:10179000214B9B69204A43F0040393611E4B9B69D4
:1017A00003F00403BB60BB681B4B9B691A4A43F000
:1017B00008039361184B9B6903F008037B607B6807
:1017C0000022F621154801F0E9FA00224FF4805179
:1017D000134801F0E3FAF6233B6101237B61002308
:1017E000BB610223FB6107F1100319460B4801F0AE
:1017F00051F94FF480533B6101237B610023BB61AE
:101800000223FB6107F110031946054801F042F974
:1018100000BF2037BD4680BD0010024000080140D7
:10182000000C014080B400AF72B600BFFEE70000BC
:1018300080B485B000AF154B9B69144A43F0010397
:101840009361124B9B6903F00103BB60BB680F4BB4
:10185000DB690E4A43F08053D3610C4BDB6903F024
:1018600080537B607B680A4B5B68FB60FB6823F0FE
:10187000E063FB60FB6843F00073FB60044AFB68B5
:10188000536000BF1437BD4680BC70470010024053
:101890000000014080B58AB000AF786007F11803FE
:1018A00000221A605A609A60DA607B681B68334ACB
:1018B00093425FD1324B9B69314A43F40073936189
:1018C0002F4B9B6903F400737B617B692C4B9B69F5
:1018D0002B4A43F004039361294B9B6903F00403F3
:1018E0003B613B69264B9B69254A43F008039361A2
:1018F000234B9B6903F00803FB60FB680823BB6173
:101900000323FB6107F1180319461E4801F0C2F8D2
:101910000323BB610323FB6107F1180319461A482F
:1019200001F0B8F8194B1A4A1A60184B00225A6095
:10193000164B00229A60154B8022DA60134B4FF44D
:1019400000721A61114B4FF400625A610F4B202252
:101950009A610E4B0022DA610C4800F0ADFE03469E
:10196000002B01D0FFF75EFF7B68084A1A62074A26
:101970007B68536200BF2837BD4680BD002401400C
:101980000010024000080140000C01402802002025
:101990000800024080B485B000AF78607B681B68A7
:1019A000094A93420BD1094B9B69084A43F40063EF
:1019B0009361064B9B6903F40063FB60FB6800BF07
:1019C0001437BD4680BC7047002C01400010024017
:1019D00080B400AFFEE780B400AFFEE780B400AF94
:1019E000FEE780B400AFFEE780B400AFFEE780B44E
:1019F00000AF00BFBD4680BC704780B400AF00BFE1
:101A0000BD4680BC704780B400AF00BFBD4680BCFF
:101A1000704780B500AF00F03FF900BF80BD000007
:101A200080B500AF024800F001FF00BF80BD00BFDD
:101A30002802002080B400AF01231846BD4680BCB8
:101A4000704780B582B000AF7860396002F00AF963
:101A5000034616221A604FF0FF3318460837BD467A
:101A600080BD80B582B000AF78604FF0FF317868FC
:101A7000FFF7E7FFFEE780B586B000AFF860B9601A
:101A80007A6000237B610AE0AFF300800146BB6807
:101A90005A1CBA60CAB21A707B6901337B617A69D9
:101AA0007B689A42F0DB7B6818461837BD4680BDDC
:101AB00080B586B000AFF860B9607A6000237B61C2
:101AC00009E0BB685A1CBA601B781846AFF3008067
:101AD0007B6901337B617A697B689A42F1DB7B68C1
:101AE00018461837BD4680BD80B483B000AF78601B
:101AF0004FF0FF3318460C37BD4680BC704780B4AA
:101B000083B000AF786039603B684FF400525A6090
:101B1000002318460C37BD4680BC704780B483B0A4
:101B200000AF7860012318460C37BD4680BC704773
:101B300080B485B000AFF860B9607A6000231846C1
:101B40001437BD4680BC704780B586B000AF786062
:101B5000144A154BD31A7B617B693B61134B1B689D
:101B6000002B02D1114B124A1A60104B1A687B6885
:101B700013443A699A4207D202F074F803460C22E1
:101B80001A604FF0FF3309E0084B1B68FB60074BFE
:101B90001A687B681344054A1360FB6818461837B7
:101BA000BD4680BD0050002000040000EC02002073
:101BB0000803002080B400AF00BFBD4680BC704762
:101BC000FFF7F8FF0B480C490C4A002302E0D458F9
:101BD000C4500433C4188C42F9D3094A094C002379
:101BE00001E013600432A242FBD302F041F8FFF798
:101BF00001FC704700000020DC010020CC6E0008D2
:101C0000DC01002004030020FEE7000080B500AFE7
:101C1000084B1B68074A43F010031360032000F0D1
:101C200009FD0F2000F008F8FFF702FE0023184618
:101C300080BD00BF0020024080B582B000AF786058
:101C4000124B1A68124B1B7819464FF47A73B3FB88
:101C5000F1F3B2FBF3F3184600F021FD0346002B2D
:101C600001D001230EE07B680F2B0AD8002279688F
:101C70004FF0FF3000F0E9FC064A7B681360002358
:101C800000E0012318460837BD4680BD0000002053
:101C9000080000200400002080B400AF054B1B7832
:101CA0001A46054B1B681344034A136000BFBD4628
:101CB00080BC704708000020F002002080B400AF14
:101CC000024B1B681846BD4680BC7047F0020020DE
:101CD00080B584B000AF7860FFF7F0FFB8607B6834
:101CE000FB60FB68B3F1FF3F05D00A4B1B781A4637
:101CF000FB681344FB6000BFFFF7E0FF0246BB68D0
:101D0000D31AFA689A42F7D800BF00BF1037BD4611
:101D100080BD00BF0800002080B586B000AF7860AD
:101D20000023FB7500233B610023BB600023FB60A5
:101D30007B68002B01D10123BEE07B689B68002BF0
:101D40007B689B6A002B09D17B680022DA627B6882
:101D5000002283F824207868FFF79CFD786800F063
:101D6000F5FA0346FB757B689B6A03F01003002BB2
:101D700040F09980FB7D002B40F095807B689B6A4A
:101D800023F4885323F0020343F002027B689A6233
:101D90007B685A687B68DB691A437B681B7B5B0046
:101DA0001343BA681343BB607B689B68B3F5807FBD
:101DB00003D07B689B68012B02D14FF4807300E055
:101DC00000233A6913433B617B681B7D012B19D1CA
:101DD0007B681B7B002B09D17B689B69013B5A0305
:101DE0003B69134343F400633B610BE07B689B6AF0
:101DF00043F020027B689A627B68DB6A43F0010251
:101E00007B68DA627B681B685B6823F469417B68E6
:101E10001B683A690A435A607B681B689A68284BBA
:101E200013407A681268B9680B4393607B689B68BB
:101E3000B3F5807F03D07B689B68012B04D17B685E
:101E40001B69013B1B05FB607B681B68DB6A23F495
:101E500070017B681B68FA680A43DA627B681B685A
:101E60009A68184B1340BA689A420BD17B680022DB
:101E7000DA627B689B6A23F0030343F001027B680C
:101E80009A6218E07B689B6A23F0120343F0100209
:101E90007B689A627B68DB6A43F001027B68DA62E6
:101EA0000123FB7507E07B689B6A43F010027B68A7
:101EB0009A620123FB75FB7D18461837BD4680BD2D
:101EC000FDF7E1FFFE0E1FFF80B586B000AFF860A2
:101ED000B9607A600023FB75FB681B68644A934213
:101EE00004D0FB681B68634A934206D1604B5B6871
:101EF00003F47023002B40F0B380FB6893F8243088
:101F0000012B01D10223AEE0FB68012283F82420DB
:101F1000F86800F0C1F90346FB75FB7D002B40F02B
:101F20009A80FB689B6A23F4706323F0010343F4F7
:101F30008072FB689A62FB681B684E4A934205D127
:101F40004B4B5B6803F47023002B15D1FB689B6A35
:101F500023F48012FB689A62FB681B685B6803F4D9
:101F60008063002B26D0FB689B6A23F4405343F424
:101F70008052FB689A621DE0FB689B6A43F4801202
:101F8000FB689A62FB681B68394A934204D0FB687D
:101F90001B68384A93420DD1354B5B6803F480636C
:101FA000002B07D0FB689B6A23F4405343F4805214
:101FB000FB689A62FB689B6A03F48053002B06D08F
:101FC000FB68DB6A23F00602FB68DA6202E0FB686A
:101FD0000022DA62FB68002283F82420FB681B6A77
:101FE000254A9A62FB681B6A244ADA62FB681B6A0C
:101FF000234A1A63FB681B686FF002021A60FB68D1
:102000001B689A68FB681B6842F480729A60FB68E0
:10201000186AFB681B684C331946BA687B6800F085
:10202000A5FBFB681B689B6803F46023B3F5602F76
:1020300008D1FB681B689A68FB681B6842F4A00221
:102040009A600FE0FB681B689A68FB681B6842F4A3
:1020500080129A6006E0FB68002283F8242001E0E9
:102060000123FB75FB7D18461837BD4680BD00BFB8
:102070000024014000280140CF2300084B24000821
:102080006724000880B483B000AF786000BF0C37CD
:10209000BD4680BC704780B483B000AF786000BF9D
:1020A0000C37BD4680BC704780B485B000AF786007
:1020B00039600023FB730023BB607B6893F82430F6
:1020C000012B01D10223DCE07B68012283F824206C
:1020D0003B685B68062B1CD87B681B68596B3B68A8
:1020E0005A6813469B001344053B1F2202FA03F370
:1020F000DB4319403B6818683B685A6813469B00ED
:102100001344053B00FA03F27B681B680A435A63D9
:102110003CE03B685B680C2B1CD87B681B68196B28
:102120003B685A6813469B001344233B1F2202FA64
:1021300003F3DB4319403B6818683B685A68134651
:102140009B001344233B00FA03F27B681B680A439D
:102150001A631BE07B681B68D96A3B685A681346A0
:102160009B001344413B1F2202FA03F3DB43194057
:102170003B6818683B685A6813469B001344413B10
:1021800000FA03F27B681B680A43DA623B681B684B
:10219000092B1CD97B681B68D9683B681A681346F1
:1021A0005B0013441E3B072202FA03F3DB43194092
:1021B0003B6898683B681A6813465B0013441E3BF3
:1021C00000FA03F27B681B680A43DA6019E07B6857
:1021D0001B6819693B681A6813465B0013440722A1
:1021E00002FA03F3DB4319403B6898683B681A68BE
:1021F00013465B00134400FA03F27B681B680A4332
:102200001A613B681B68102B03D03B681B68112BBD
:1022100032D17B681B681D4A934225D17B681B68BD
:102220009B6803F40003002B26D17B681B689A6827
:102230007B681B6842F400029A603B681B68102BA5
:102240001AD1134B1B68134AA2FB03239A0C1346A3
:102250009B0013445B00BB6002E0BB68013BBB60BA
:10226000BB68002BF9D107E07B689B6A43F0200232
:102270007B689A620123FB737B68002283F8242029
:10228000FB7B18461437BD4680BC704700240140D4
:102290000000002083DE1B4380B584B000AF78606F
:1022A0000023FB600023BB607B681B689B6803F016
:1022B0000103012B40D07B681B689A687B681B6810
:1022C00042F001029A601F4B1B681F4AA2FB0323C6
:1022D0009B0CBB6002E0BB68013BBB60BB68002B92
:1022E000F9D1FFF7EBFCF8601FE0FFF7E7FC0246CF
:1022F000FB68D31A022B18D97B681B689B6803F014
:102300000103012B11D07B689B6A43F010027B68AC
:102310009A627B68DB6A43F001027B68DA627B6861
:10232000002283F82420012307E07B681B689B6858
:1023300003F00103012BD8D1002318461037BD4606
:1023400080BD00BF0000002083DE1B4380B584B049
:1023500000AF78600023FB607B681B689B6803F01C
:102360000103012B2ED17B681B689A687B681B6870
:1023700022F001029A60FFF7A1FCF8601BE0FFF772
:102380009DFC0246FB68D31A022B14D97B681B689C
:102390009B6803F00103012B0DD17B689B6A43F01E
:1023A00010027B689A627B68DB6A43F001027B68FB
:1023B000DA62012307E07B681B689B6803F0010376
:1023C000012BDCD0002318461037BD4680BD80B5F8
:1023D00084B000AF78607B685B6AFB60FB689B6AD7
:1023E00003F05003002B27D1FB689B6A43F4007273
:1023F000FB689A62FB681B689B6803F46023B3F573
:10240000602F15D1FB681B7B002B11D1FB689B6AE9
:1024100023F48072FB689A62FB689B6A03F4805322
:10242000002B05D1FB689B6A43F00102FB689A62AE
:10243000F868FEF71DFF04E0FB681B6A1B6B7868F9
:10244000984700BF1037BD4680BD80B584B000AF4F
:1024500078607B685B6AFB60F868FFF713FE00BF7B
:102460001037BD4680BD80B584B000AF78607B6812
:102470005B6AFB60FB689B6A43F04002FB689A6200
:10248000FB68DB6A43F00402FB68DA62F868FFF776
:1024900002FE00BF1037BD4680BD000080B485B08D
:1024A00000AF78607B6803F00703FB600C4BDB68D0
:1024B000BB60BA684FF6FF031340BB60FB681A02AB
:1024C000BB68134343F0BF6343F40033BB60044A6B
:1024D000BB68D36000BF1437BD4680BC704700BFE7
:1024E00000ED00E080B400AF044BDB681B0A03F092
:1024F00007031846BD4680BC704700BF00ED00E0F2
:1025000080B483B000AF0346FB7197F90730002B0E
:102510000BDBFB7903F01F02064997F907305B09D3
:10252000012000FA02F241F8232000BF0C37BD461B
:1025300080BC704700E100E080B483B000AF034688
:102540003960FB7197F90730002B0ADB3B68DAB280
:102550000C4997F907301201D2B20B4483F80023DB
:102560000AE03B68DAB20849FB7903F00F03043B49
:102570001201D2B20B441A7600BF0C37BD4680BCA4
:10258000704700BF00E100E000ED00E080B489B0DA
:1025900000AFF860B9607A60FB6803F00703FB6185
:1025A000FB69C3F10703042B28BF0423BB61FB694C
:1025B0000433062B02D9FB69033B00E000237B6157
:1025C0004FF0FF32BB6902FA03F3DA43BB681A40EB
:1025D0007B699A404FF0FF317B6901FA03F3D943DD
:1025E0007B680B40134318462437BD4680BC7047B8
:1025F00080B582B000AF78607B68013BB3F1807F2B
:1026000001D301230FE00A4A7B68013B53600F218D
:102610004FF0FF30FFF790FF054B00229A60044B0C
:1026200007221A60002318460837BD4680BD00BF48
:1026300010E000E080B582B000AF78607868FFF706
:102640002DFF00BF0837BD4680BD80B586B000AF06
:102650000346B9607A60FB7300237B61FFF742FF9A
:1026600078617A68B9687869FFF790FF024697F950
:102670000F3011461846FFF75FFF00BF1837BD4601
:1026800080BD80B582B000AF0346FB7197F907307B
:102690001846FFF735FF00BF0837BD4680BD80B53F
:1026A00082B000AF78607868FFF7A2FF0346184653
:1026B0000837BD4680BD000080B485B000AF7860AB
:1026C0000023FB607B68002B01D1012343E07B6882
:1026D0001B681A46224B1344224AA2FB03231B0900
:1026E0009A007B681A647B681F4ADA637B6802225F
:1026F00083F821207B681B681B68FB60FB6823F460
:102700007F5323F03003FB607B685A687B689B68CB
:102710001A437B68DB681A437B681B691A437B6832
:102720005B691A437B689B691A437B68DB691343C7
:10273000FA681343FB607B681B68FA681A607B6861
:1027400000229A637B68012283F821207B680022A3
:1027500083F82020002318461437BD4680BC7047FC
:10276000F8FFFDBFCDCCCCCC0000024080B586B0D8
:1027700000AFF860B9607A603B600023FB75FB68CE
:1027800093F82030012B01D102234BE0FB6801229A
:1027900083F82020FB6893F82130DBB2012B3AD17B
:1027A000FB68022283F82120FB6800229A63FB6801
:1027B0001B681A68FB681B6822F001021A603B68FC
:1027C0007A68B968F86800F037F9FB68DB6A002BB3
:1027D00008D0FB681B681A68FB681B6842F00E0291
:1027E0001A600FE0FB681B681A68FB681B6822F020
:1027F00004021A60FB681B681A68FB681B6842F0D9
:102800000A021A60FB681B681A68FB681B6842F0C2
:1028100001021A6005E0FB68002283F820200223F1
:10282000FB75FB7D18461837BD4680BD80B584B06A
:1028300000AF78607B68DB6B1B68FB607B681B68A4
:102840001B68BB607B681B6C04229A40FB681340CA
:10285000002B4FD0BB6803F00403002B4AD07B68E9
:102860001B681B6803F02003002B07D17B681B68E3
:102870001A687B681B6822F004021A607B681B6878
:10288000664A934229D07B681B68654A934222D0EE
:102890007B681B68634A93421AD07B681B68624A54
:1028A000934212D07B681B68604A93420AD07B68CF
:1028B0001B685F4A934202D14FF480030EE04FF051
:1028C00080630BE04FF4802308E04FF4804305E081
:1028D0004FF4806302E0402300E00423554A536034
:1028E0007B68DB6A002B00F094807B68DB6A786889
:1028F00098478EE07B681B6C02229A40FB6813406D
:10290000002B56D0BB6803F00203002B51D07B682C
:102910001B681B6803F02003002B0BD17B681B682E
:102920001A687B681B6822F00A021A607B68012221
:1029300083F821207B681B68384A934229D07B6842
:102940001B68374A934222D07B681B68354A934202
:102950001AD07B681B68344A934212D07B681B688C
:10296000324A93420AD07B681B68314A934202D1B3
:102970004FF400130EE04FF000730BE04FF4003300
:1029800008E04FF4005305E04FF4007302E0202309
:1029900000E00223274A53607B68002283F820204E
:1029A0007B689B6A002B34D07B689B6A7868984769
:1029B0002FE07B681B6C08229A40FB681340002BB9
:1029C00028D0BB6803F00803002B23D07B681B686A
:1029D0001A687B681B6822F00E021A607B681A6C0A
:1029E0007B68DB6B012101FA02F25A607B680122ED
:1029F0009A637B68012283F821207B68002283F898
:102A000020207B681B6B002B04D07B681B6B7868D5
:102A1000984700BF00BF1037BD4680BD0800024088
:102A20001C000240300002404400024058000240B6
:102A30006C0002400000024080B485B000AFF86036
:102A4000B9607A603B60FB681A6CFB68DB6B012144
:102A500001FA02F25A60FB681B683A685A60FB6828
:102A60005B68102B08D1FB681B687A689A60FB686A
:102A70001B68BA68DA6007E0FB681B68BA689A608E
:102A8000FB681B687A68DA6000BF1437BD4680BCFB
:102A90007047000080B48BB000AF786039600023CD
:102AA0007B6200233B6269E101227B6A02FA03F345
:102AB000FB613B681B68FA691340BB61BA69FB693B
:102AC0009A4240F058813B685B689A4A93425ED0D4
:102AD000984A934275D8984A934258D0964A93425E
:102AE0006FD8964A934252D0944A934269D8944AF6
:102AF00093424CD0924A934263D8924A934246D032
:102B0000904A93425DD8122B2AD8122B59D801A291
:102B100052F823F08F2B0008692B00087B2B00084C
:102B2000BD2B0008C32B0008C32B0008C32B0008D3
:102B3000C32B0008C32B0008C32B0008C32B0008BD
:102B4000C32B0008C32B0008C32B0008C32B0008AD
:102B5000C32B0008C32B0008712B0008852B00082D
:102B6000794A934213D02CE03B68DB683B6229E052
:102B70003B68DB6804333B6224E03B68DB68083376
:102B80003B621FE03B68DB680C333B621AE03B684A
:102B90009B68002B02D104233B6213E03B689B68D7
:102BA000012B05D108233B627B68FA691A6109E0B1
:102BB00008233B627B68FA695A6103E000233B62A9
:102BC00000E000BFBB69FF2B01D87B6801E07B6898
:102BD00004337B61BB69FF2B02D87B6A9B0002E058
:102BE0007B6A083B9B003B617B691A680F213B694C
:102BF00001FA03F3DB431A40396A3B6901FA03F334
:102C00001A437B691A603B685B6803F08053002BB2
:102C100000F0B1804D4B9B694C4A43F00103936136
:102C20004A4B9B6903F00103BB60BB68484A7B6A5F
:102C30009B08023352F82330FB607B6A03F00303E6
:102C40009B000F2202FA03F3DB43FA681340FB6098
:102C50007B68404A934213D07B683F4A93420DD031
:102C60007B683E4A934207D07B683D4A934201D13C
:102C7000032306E0042304E0022302E0012300E032
:102C800000237A6A02F0030292009340FA68134329
:102C9000FB602F497B6A9B080233FA6841F82320C6
:102CA0003B685B6803F48013002B06D02D4B9A68B9
:102CB0002C49BB6913438B6006E02A4B9A68BB69B9
:102CC000DB43284913408B603B685B6803F40013C7
:102CD000002B06D0234BDA682249BB691343CB6033
:102CE00006E0204BDA68BB69DB431E491340CB602A
:102CF0003B685B6803F40033002B06D0194B5A681D
:102D00001849BB6913434B6006E0164B5A68BB6910
:102D1000DB43144913404B603B685B6803F480332A
:102D2000002B21D00F4B1A680E49BB6913430B606F
:102D300021E000BF0000321000003110000022101E
:102D400000002110000012100000111000100240BD
:102D50000000014000080140000C0140001001404B
:102D600000140140000401400B4B1A68BB69DB43AF
:102D7000094913400B607B6A01337B623B681A6828
:102D80007B6A22FA03F3002B7FF48EAE00BF00BFF4
:102D90002C37BD4680BC70470004014080B483B02E
:102DA00000AF78600B467B8013467B707B78002BEE
:102DB00003D07A887B681A6103E07B881A047B68F9
:102DC0001A6100BF0C37BD4680BC704780B586B025
:102DD00000AF78607B68002B01D1012372E27B6831
:102DE0001B6803F00103002B00F08780924B5B68A7
:102DF00003F00C03042B0CD08F4B5B6803F00C0327
:102E0000082B12D18C4B5B6803F48033B3F5803F01
:102E10000BD1894B1B6803F40033002B6CD07B680B
:102E20005B68002B68D101234CE27B685B68B3F5DB
:102E3000803F06D1804B1B687F4A43F48033136088
:102E40002EE07B685B68002B0CD17B4B1B687A4AB9
:102E500023F480331360784B1B68774A23F4802374
:102E600013601DE07B685B68B3F5A02F0CD1724B3B
:102E70001B68714A43F4802313606F4B1B686E4AD2
:102E800043F4803313600BE06B4B1B686A4A23F4F6
:102E900080331360684B1B68674A23F480231360F8
:102EA0007B685B68002B13D0FEF708FF386108E0F1
:102EB000FEF704FF02463B69D31A642B01D90323B2
:102EC00000E25D4B1B6803F40033002BF0D014E0EC
:102ED000FEF7F4FE386108E0FEF7F0FE02463B69BB
:102EE000D31A642B01D90323ECE1534B1B6803F481
:102EF0000033002BF0D100E000BF7B681B6803F0BB
:102F00000203002B63D04C4B5B6803F00C03002BD7
:102F10000BD0494B5B6803F00C03082B1CD1464BCC
:102F20005B6803F48033002B16D1434B1B6803F01E
:102F30000203002B05D07B681B69012B01D0012304
:102F4000C0E13D4B1B6823F0F8027B685B69DB0046
:102F5000394913430B603AE07B681B69002B20D092
:102F6000364B01221A60FEF7A9FE386108E0FEF731
:102F7000A5FE02463B69D31A022B01D90323A1E126
:102F80002D4B1B6803F00203002BF0D02A4B1B686B
:102F900023F0F8027B685B69DB00274913430B6071
:102FA00015E0264B00221A60FEF788FE386108E023
:102FB000FEF784FE02463B69D31A022B01D9032394
:102FC00080E11D4B1B6803F00203002BF0D17B68EE
:102FD0001B6803F00803002B3AD07B689B69002B29
:102FE00019D0174B01221A60FEF768FE386108E01D
:102FF000FEF764FE02463B69D31A022B01D9032374
:1030000060E10D4B5B6A03F00203002BF0D001205E
:1030100000F09CFA1CE00A4B00221A60FEF74EFEFC
:1030200038610FE0FEF74AFE02463B69D31A022BD5
:1030300008D9032346E100BF0010024000004242CD
:1030400080044242924B5B6A03F00203002BE9D1F9
:103050007B681B6803F00403002B00F0A6800023AC
:10306000FB758B4BDB6903F08053002B0DD1884B34
:10307000DB69874A43F08053D361854BDB6903F0FA
:103080008053BB60BB680123FB75824B1B6803F454
:103090008073002B18D17F4B1B687E4A43F48073EA
:1030A0001360FEF70BFE386108E0FEF707FE0246EC
:1030B0003B69D31A642B01D9032303E1754B1B68C9
:1030C00003F48073002BF0D07B68DB68012B06D102
:1030D0006F4B1B6A6E4A43F0010313622DE07B685D
:1030E000DB68002B0CD16A4B1B6A694A23F0010391
:1030F0001362674B1B6A664A23F0040313621CE0E9
:103100007B68DB68052B0CD1614B1B6A604A43F07E
:10311000040313625E4B1B6A5D4A43F001031362B2
:103120000BE05B4B1B6A5A4A23F001031362584BB6
:103130001B6A574A23F0040313627B68DB68002B89
:1031400015D0FEF7BBFD38610AE0FEF7B7FD024679
:103150003B69D31A41F28832934201D90323B1E08B
:103160004B4B1B6A03F00203002BEED014E0FEF77A
:10317000A5FD38610AE0FEF7A1FD02463B69D31ABE
:1031800041F28832934201D903239BE0404B1B6AF2
:1031900003F00203002BEED1FB7D012B05D13C4B4C
:1031A000DB693B4A23F08053D3617B68DB69002BEA
:1031B00000F08780364B5B6803F00C03082B61D06E
:1031C0007B68DB69022B46D1334B00221A60FEF785
:1031D00075FD386108E0FEF771FD02463B69D31AC0
:1031E000022B01D903236DE0294B1B6803F0007308
:1031F000002BF0D17B681B6AB3F5803F08D1244BCC
:103200005B6823F400327B689B68214913434B6061
:103210001F4B5B6823F474127B68196A7B685B6AD6
:103220000B431B4913434B601B4B01221A60FEF7F3
:1032300045FD386108E0FEF741FD02463B69D31ABF
:10324000022B01D903233DE0114B1B6803F00073EF
:10325000002BF0D035E0104B00221A60FEF72EFD57
:10326000386108E0FEF72AFD02463B69D31A022BBB
:1032700001D9032326E0064B1B6803F00073002BE3
:10328000F0D11EE07B68DB69012B07D1012319E037
:103290000010024000700040600042420B4B5B682F
:1032A000FB60FB6803F480327B681B6A9A4206D19C
:1032B000FB6803F470127B685B6A9A4201D00123B9
:1032C00000E0002318461837BD4680BD00100240BC
:1032D00080B584B000AF786039607B68002B01D185
:1032E0000123D0E06A4B1B6803F007033A689A4257
:1032F00010D9674B1B6823F0070265493B681343ED
:103300000B60634B1B6803F007033A689A4201D0D5
:103310000123B8E07B681B6803F00203002B20D078
:103320007B681B6803F00403002B05D0594B5B68D6
:10333000584A43F4E06353607B681B6803F008035A
:10334000002B05D0534B5B68524A43F460535360E3
:10335000504B5B6823F0F0027B689B684D49134338
:103360004B607B681B6803F00103002B40D07B6837
:103370005B68012B07D1474B1B6803F40033002B1C
:1033800015D101237FE07B685B68022B07D1414B9D
:103390001B6803F00073002B09D1012373E03D4B40
:1033A0001B6803F00203002B01D101236BE0394BB2
:1033B0005B6823F003027B685B68364913434B600C
:1033C000FEF77CFCF8600AE0FEF778FC0246FB683A
:1033D000D31A41F28832934201D9032353E02D4B93
:1033E0005B6803F00C027B685B689B009A42EBD140
:1033F000274B1B6803F007033A689A4210D2244B0C
:103400001B6823F0070222493B6813430B60204BE3
:103410001B6803F007033A689A4201D0012332E0A7
:103420007B681B6803F00403002B08D0194B5B6812
:1034300023F4E0627B68DB68164913434B607B68CA
:103440001B6803F00803002B09D0124B5B6823F4C0
:1034500060527B681B69DB000E4913434B6000F030
:1034600021F802460B4B5B681B0903F00F030A4966
:10347000CB5C22FA03F3094A1360094B1B68184618
:10348000FEF7DAFB002318461037BD4680BD00BFAB
:103490000020024000100240C86A0008000000201E
:1034A0000400002080B487B000AF0023FB6000233D
:1034B000BB6000237B6100237B6000233B611E4BCC
:1034C0005B68FB60FB6803F00C03042B02D0082B45
:1034D00003D027E0194B3B6127E0FB689B0C03F00E
:1034E0000F03174AD35C7B60FB6803F48033002B27
:1034F00010D0114B5B685B0C03F00103114AD35CE5
:10350000BB607B680D4A03FB02F2BB68B2FBF3F3BE
:103510007B6104E07B680C4A02FB03F37B617B69FF
:103520003B6102E0054B3B6100BF3B6918461C371D
:10353000BD4680BC704700BF0010024000127A00F8
:10354000D86A0008E86A000800093D0080B485B028
:1035500000AF78600A4B1B680A4AA2FB03235B0A90
:103560007A6802FB03F3FB6000BFFB685A1EFA6037
:10357000002BF9D100BF00BF1437BD4680BC704797
:1035800000000020D34D621080B586B000AF786097
:1035900000233B610023FB607B681B6803F0010391
:1035A000002B7DD00023FB754F4BDB6903F080536C
:1035B000002B0DD14C4BDB694B4A43F08053D36158
:1035C000494BDB6903F08053BB60BB680123FB758B
:1035D000464B1B6803F48073002B18D1434B1B68C8
:1035E000424A43F480731360FEF768FB386108E0D9
:1035F000FEF764FB02463B69D31A642B01D903230F
:103600006DE03A4B1B6803F48073002BF0D0364B0F
:103610001B6A03F44073FB60FB68002B2ED07B68B1
:103620005B6803F44073FA689A4227D02E4B1B6AFA
:1036300023F44073FB602E4B01221A602C4B0022B6
:103640001A60294AFB681362FB6803F00103002B30
:1036500014D0FEF733FB38610AE0FEF72FFB024679
:103660003B69D31A41F28832934201D9032336E0F1
:103670001D4B1B6A03F00203002BEED01A4B1B6A92
:1036800023F440727B685B68174913430B62FB7D30
:10369000012B05D1144BDB69134A23F08053D3610E
:1036A0007B681B6803F00203002B08D00E4B5B689D
:1036B00023F440427B689B680B4913434B607B6853
:1036C0001B6803F01003002B08D0074B5B6823F442
:1036D00080027B68DB68044913434B600023184673
:1036E0001837BD4680BD00BF00100240007000408A
:1036F0004004424280B582B000AF78607B68002B06
:1037000001D1012341E07B6893F83D30DBB2002B0F
:1037100006D17B68002283F83C207868FEF73AF9EE
:103720007B68022283F83D207B681A687B6804333B
:103730001946104600F040F97B68012283F84620C4
:103740007B68012283F83E207B68012283F83F20BA
:103750007B68012283F840207B68012283F84120A6
:103760007B68012283F842207B68012283F8432092
:103770007B68012283F844207B68012283F845207E
:103780007B68012283F83D20002318460837BD4698
:1037900080BD000080B485B000AF78607B6893F88E
:1037A0003D30DBB2012B01D0012332E07B680222E5
:1037B00083F83D207B681B68184A93420ED07B68D3
:1037C0001B68B3F1804F09D07B681B68144A934291
:1037D00004D07B681B68134A934211D17B681B6835
:1037E0009B6803F00703FB60FB68062B10D07B6827
:1037F0001B681A687B681B6842F001021A6007E0C8
:103800007B681B681A687B681B6842F001021A60BB
:10381000002318461437BD4680BC7047002C014079
:10382000000400400008004080B584B000AF78601C
:1038300039600023FB737B6893F83C30012B01D186
:103840000223B4E07B68012283F83C207B680222DB
:1038500083F83D207B681B689B68BB60BB6823F0D6
:103860007703BB60BB6823F47F43BB607B681B6846
:10387000BA689A603B681B68B3F5005F3ED0B3F549
:10388000005F00F28780B3F5805F00F08680B3F5BB
:10389000805F7FD8702B1AD0702B7BD8602B50D0D4
:1038A000602B77D8502B3CD0502B73D8402B58D05E
:1038B000402B6FD8302B64D0302B6BD8202B60D0AE
:1038C000202B67D8002B5CD0102B5AD062E07B688D
:1038D00018683B6899683B685A683B68DB6800F089
:1038E00044F97B681B689B68BB60BB6843F0770347
:1038F000BB607B681B68BA689A604FE07B68186899
:103900003B6899683B685A683B68DB6800F02DF9B2
:103910007B681B689A687B681B6842F480429A60E7
:103920003CE07B6818683B6859683B68DB681A466E
:1039300000F0A4F87B681B685021184600F0FBF8E3
:103940002CE07B6818683B6859683B68DB681A465E
:1039500000F0C2F87B681B686021184600F0EBF8A5
:103960001CE07B6818683B6859683B68DB681A464E
:1039700000F084F87B681B684021184600F0DBF8F3
:103980000CE07B681A683B681B681946104600F01B
:10399000D2F803E00123FB7300E000BF7B68012243
:1039A00083F83D207B68002283F83C20FB7B18468F
:1039B0001037BD4680BD000080B485B000AF786090
:1039C00039607B681B68FB607B68294A93420BD097
:1039D0007B68B3F1804F07D07B68264A934203D0BF
:1039E0007B68254A934208D1FB6823F07003FB6093
:1039F0003B685B68FA681343FB607B681C4A934230
:103A00000BD07B68B3F1804F07D07B68194A934293
:103A100003D07B68184A934208D1FB6823F44073B3
:103A2000FB603B68DB68FA681343FB60FB6823F0CC
:103A300080023B685B691343FB607B68FA681A602D
:103A40003B689A687B68DA623B681A687B689A62AE
:103A50007B68074A934203D13B681A697B681A6303
:103A60007B6801225A6100BF1437BD4680BC704795
:103A7000002C0140000400400008004080B487B0E2
:103A800000AFF860B9607A60FB681B6A7B61FB6815
:103A90001B6A23F00102FB681A62FB689B693B61A9
:103AA0003B6923F0F0033B617B681B013A691343D8
:103AB0003B617B6923F00A037B617A69BB6813432E
:103AC0007B61FB683A699A61FB687A691A6200BF98
:103AD0001C37BD4680BC704780B487B000AFF8602B
:103AE000B9607A60FB681B6A7B61FB681B6A23F024
:103AF0001002FB681A62FB689B693B613B6923F417
:103B000070433B617B681B033A6913433B617B69EC
:103B100023F0A0037B61BB681B017A6913437B61BF
:103B2000FB683A699A61FB687A691A6200BF1C37C0
:103B3000BD4680BC704780B485B000AF7860396006
:103B40007B689B68FB60FB6823F07003FB603A684E
:103B5000FB68134343F00703FB607B68FA689A60D5
:103B600000BF1437BD4680BC704780B487B000AF3B
:103B7000F860B9607A603B60FB689B687B617B6939
:103B800023F47F437B613B681A027B681A43BB685E
:103B900013437A6913437B61FB687A699A6000BFBB
:103BA0001C37BD4680BC704780B485B000AF7860DC
:103BB00039607B6893F83C30012B01D1022346E049
:103BC0007B68012283F83C207B68022283F83D2039
:103BD0007B681B685B68FB607B681B689B68BB60DD
:103BE000FB6823F07003FB603B681B68FA681343B3
:103BF000FB607B681B68FA685A607B681B68164A22
:103C000093420ED07B681B68B3F1804F09D07B686C
:103C10001B68124A934204D07B681B68104A934287
:103C20000CD1BB6823F08003BB603B685B68BA685B
:103C30001343BB607B681B68BA689A607B6801228B
:103C400083F83D207B68002283F83C20002318463F
:103C50001437BD4680BC7047002C01400004004072
:103C600000080040014B1868704700BF0C0000209E
:103C700070B500260C4D0D4C641BA410A64209D152
:103C800002F0FAFE00260A4D0A4C641BA410A6425C
:103C900005D170BD55F8043B98470136EEE755F85D
:103CA000043B98470136F2E7C46E0008C46E000872
:103CB000C46E0008C86E000803460244934200D157
:103CC000704703F8011BF9E7002B2DE9F0471F4669
:103CD000BBBF03F100431F4600232D2388B01446C9
:103CE000129A109D1370149BDDF84CA023F020084D
:103CF000B8F1460F05D0B8F1450F00D101350223C8
:103D000000E0032307AA049206AACDE902A2CDE9A6
:103D1000003522463B4600F0E3FCB8F1470F06466B
:103D200002D1119BDB0722D5B8F1460F06EB05093E
:103D300010D13378302B0AD1002200232046394697
:103D4000FCF732FE18B9C5F10105CAF80050DAF8DF
:103D5000003099440022002320463946FCF724FE17
:103D600008B1CDF81C903022079B4B4507D3304655
:103D7000079B159A9B1B136008B0BDE8F087591C80
:103D800007911A70F0E70346F7B5002903F8022BF4
:103D9000B6BF2D222B224942092942702BDD0DF19D
:103DA0000704A4460A2791FBF7F60A46A64607FB36
:103DB0001615632A05F13005314604F1FF340EF87B
:103DC000015CF0DC3031AEF1020504F8011C29463B
:103DD000441C61450AD30DF10902A2EB0E026545B0
:103DE00088BF00221344181A03B0F0BD11F8012B4C
:103DF00004F8012FEDE7302330318370C170031DCB
:103E0000F1E700002DE9F04F91B00C46DDF8688035
:103E100016461F46054601F051FA036818460993F5
:103E2000FCF796F900230E93D8F800300A90073378
:103E300023F0070303F1080294F81890D4F800B0B7
:103E4000C8F80020D3E90023C4E91223D4E9128A78
:103E50002AF000430B934FF0FF3240469C4B0B99E6
:103E6000FCF7D4FD70BB4FF0FF324046984B0B99E6
:103E7000FCF7AEFD30BB0022002340465146FCF764
:103E80009DFD10B12D2384F84330924B9248B9F137
:103E9000470F94BF9846804603234FF0000A2361E2
:103EA0002BF00403236033462146284600970FAACF
:103EB00000F0D4F9013040F090804FF0FF3011B0A5
:103EC000BDE8F08F4246534640465146FCF79EFD02
:103ED00048B1BAF1000FB8BF2D238048B8BF84F8AD
:103EE00043307F4BD3E7636809F0DF015A1C42D1AE
:103EF00006236360002206920EAACDE904920DAA61
:103F00004BF4806303920DF13302CDE9013223605B
:103F1000636842460093284653460B91FFF7D4FE50
:103F20000B99804647290D9908D1C81C02DB6368AC
:103F3000994240DDA9F102095FFA89F9B9F1650FEB
:103F40001FD84A46013904F150000D91FFF71BFFBD
:103F50000E9A82461318012A236102DC2268D207D6
:103F600001D5013323619DF83330002B9BD02D23E5
:103F700084F8433097E74729BCD1002BBAD10123FD
:103F8000B7E7B9F1660F18D1002963680BDD21612D
:103F900013B92268D00702D501330B4423614FF0D7
:103FA000000AA165DFE713B92268D20701D5023301
:103FB000F4E70123F2E74FF067090E9B994205DB16
:103FC00023682161D807EAD54B1CE7E70029CCBF5D
:103FD0000122C1F102021344E0E723685A0507D425
:103FE0002369424631462846B84701302BD164E761
:103FF000B9F1650F40F2DD80D4E9120100220023FF
:10400000FCF7D2FC002833D0012331462846354A3C
:10401000B84701303FF451AFDDE90D239A4202DB8E
:104020002368D8070FD5DDE9092331462846B8476C
:1040300001303FF442AF4FF0000804F11A090E9B23
:10404000013B434509DC23689B0700F10281E068DE
:104050000F9B9842B8BF184631E701234A463146C4
:104060002846B84701303FF428AF08F10108E6E7D9
:104070000D9B002B38DC012331462846194AB847EE
:1040800001303FF41AAFDDE90D23134302D1236859
:10409000D907D8D5DDE9092331462846B84701308C
:1040A0003FF40BAF4FF0000904F11A0A0D9B5B427D
:1040B0004B4501DC0E9B94E70123524631462846CE
:1040C000B84701303FF4F9AE09F10109EEE700BF4E
:1040D000FFFFEF7FF06A0008F46A0008FC6A00083E
:1040E000F86A0008006B00080E9AA36D9A42A8BFF8
:1040F0001A46002A914637DC4FF0000B29EAE9798D
:1041000004F11A02D4F858A0AAEB09035B4533DC8A
:10411000DDE90D239A423BDB2368DA0738D40E9B96
:104120000D99A3EB0A02A3EB01099145A8BF9146A3
:10413000B9F1000F34DC4FF0000829EAE97904F105
:104140001A0ADDE90D239B1AA3EB090343457FF708
:104150007AAF0123524631462846B84701303FF432
:10416000ACAE08F10108ECE713463146424628465A
:10417000B8470130C0D1A0E60123314628460B9252
:10418000B84701303FF499AE0B9A0BF1010BB9E738
:104190003146DDE909232846B8470130BFD18CE616
:1041A0004B463146284608EB0A02B8470130C2D1D7
:1041B00083E60E9A012A01DCDB0737D5012342464C
:1041C00031462846B84701303FF477AEDDE9092390
:1041D00031462846B84701303FF46FAED4E91201AA
:1041E00000220023FCF7E0FBD8B90E9B08F1010286
:1041F000013B31462846B84701300ED15DE6012328
:104200004A4631462846B84701303FF456AE08F1D9
:1042100001080E9B013B4345F1DC534604F150027B
:10422000E0E64FF0000804F11A09F2E701234246E4
:10423000DFE701234A4631462846B84701303FF4BC
:104240003CAE08F10108E3680F995B1A4345F0DCC6
:10425000FDE64FF0000804F11909F4E72DE9F047F5
:10426000164699468A680B6907469342B8BF1346BB
:10427000336091F843200C46DDF820800AB1013309
:1042800033602368990642BF336802333360256880
:1042900015F0060506D104F1190AE36832689B1A85
:1042A000AB4228DC94F84320131E226818BF012378
:1042B00092062DD44946384604F14302C0470130E6
:1042C00020D02368E56803F00603042B18BF0025FF
:1042D00032684FF00006A36808BFAD1A226908BF14
:1042E00025EAE5759342C4BF9B1AED181A34B5420E
:1042F0001AD1002008E00123524649463846C047FB
:10430000013003D14FF0FF30BDE8F0870135C4E73D
:104310003020E11881F843005A1C94F845102244DB
:10432000023382F84310C5E7012322464946384646
:10433000C0470130E6D00136D9E700002DE9FF473C
:104340000F7E9146782F80460C469A460C9D01F1CF
:10435000430207D8622F0AD8002F00F0D980582FC7
:1043600000F0A48004F1420584F842703AE0A7F11D
:104370006303152BF6D801A151F823F0D5430008AB
:10438000E9430008654300086543000865430008E9
:1043900065430008E94300086543000865430008D9
:1043A0006543000865430008F74400081944000805
:1043B000D944000865430008654300081945000812
:1043C0006543000819440008654300086543000878
:1043D000E14400082B681A1D1B682A6004F142059D
:1043E00084F842300123A4E020682968060601F120
:1043F00004030AD50E682B60002E03DA2D237642C3
:1044000084F843300A235E4819E00E6810F0400F2C
:104410002B6018BF36B2EFE72B682068191D2960A2
:10442000010601D51E6802E04606FBD51E886F2FE7
:104430000CBF08230A235248002184F84310656802
:10444000002DA8BF2168A560A4BF21F00401216050
:104450000EB9002D4DD01546B6FBF3F103FB1167E5
:10446000C75D05F8017D3746BB420E46F4D9082BDF
:104470000BD12368DE0708D5236961689942DEBF46
:10448000302305F8013C05F1FF35521B22614B46F4
:1044900021464046CDF800A003AAFFF7DFFE013019
:1044A0004CD14FF0FF3004B0BDE8F087344881F8BC
:1044B00045702968236851F8046B29601D0614D5DE
:1044C000DF0744BF43F0200323601EB9236823F0B5
:1044D000200323601023AFE7236843F02003236009
:1044E0007823284884F84530E3E7590648BFB6B238
:1044F000E6E71546BBE72B682668181D616928604A
:1045000035061B6801D5196002E07006FBD51980DD
:10451000002315462361BAE72B6800211A1D2A6083
:104520001D686268284600F0D5FE08B1401B606037
:1045300063682361002384F84330A8E72A4649468C
:1045400040462369D0470130ABD023689B0713D482
:10455000E068039B9842B8BF1846A4E7012332469F
:1045600049464046D04701309BD00135E368039966
:104570005B1AAB42F2DCEBE7002504F11906F5E724
:10458000026B0008136B00080EB46FF0004100B519
:104590009CB01DAB02900690079104910848094910
:1045A00053F8042B0591006802A9019301F07CFBEC
:1045B0000022029B1A701CB05DF804EB03B0704738
:1045C0000C0000200802FFFF2DE9F74F03690C697A
:1045D0000746A342C0F28280013C00F1140501F1BC
:1045E000140805EB8403019358F8243055F824206F
:1045F00001339A42B2FBF3F64FEA840B08EB8409CD
:1046000031D34FF0000E4046AC46F24650F8042B32
:1046100093B206FB03E3120C4FEA134E9BB206FB68
:1046200002E2AAEB0303DCF800A04FEA124E1FFAE5
:104630008AFA5344DCF800A092B2C2EB1A4202EBB1
:1046400023429BB243EA024381454FEA224A4CF897
:10465000043BDBD255F80B302BB9019B043B9D4248
:104660001A462FD33C61384601F0CEF8002825DBEE
:1046700028464FF0000C013658F8041BD0F800E033
:104680008BB2ACEB03031FFA8EF213440A0CC2EB9D
:104690001E4202EB23429BB243EA0243C1454FEA6A
:1046A000224C40F8043BE7D255F8242005EB840364
:1046B00022B9043B9D421A460AD33C61304603B0FE
:1046C000BDE8F08F1268043B002ACBD1013CC6E75D
:1046D0001268043B002AF0D1013CEBE70020EEE732
:1046E0002DE9F04F16461F46446A99B00546CDE9BC
:1046F0000467DDF8948074B9102000F0E3FD0246F1
:10470000686220B9EA21A84BA84801F0DDFBC0E9A6
:1047100001440460C4606B6A196851B15A6801238E
:1047200093404A608B60284600F030FE00226B6A9E
:104730001A603B1EAFBF0023012223F00043059304
:10474000A8BFC8F80030DDF81490994BB8BFC8F87E
:10475000002033EA090319D142F20F73249A13603F
:10476000C9F31303334300F07F85269B53B9914B64
:1047700022E0914B03930833269A1360039819B0F3
:10478000BDE8F08F8B4B03930333F5E7DDE9043489
:10479000CDE90C34DDE90C0100220023FCF704F91B
:1047A000804658B10123249A1360269B002B00F009
:1047B000588582481860431E0393DFE716AB0193C8
:1047C00017AB00932846DDE90C2301F0C5F8C9F3C7
:1047D0000A548346002C7FD0DDE90C010D9BA4F226
:1047E000FF34C3F3130343F07F5141F44011CDF87C
:1047F0004C800022724BFBF7B7FC65A3D3E9002382
:10480000FBF76AFE64A3D3E90023FBF7AFFC06467F
:1048100020460F46FBF7F6FD61A3D3E90023FBF723
:104820005BFE02460B4630463946FBF79FFC0646C8
:104830000F46FCF701F90022824600233046394634
:10484000FCF7BCF848B15046FBF7DCFD32463B466E
:10485000FCF7AAF808B90AF1FF3ABAF1160F58D8CE
:10486000DDE90C01574B03EBCA03D3E90023FCF746
:10487000A5F800284FD000230AF1FF3A0F93169BAA
:104880001C1B631E099349BFC4F101030023069357
:10489000002354BF06930993BAF1000F3DDB099B37
:1048A000CDF838A05344099300230A93229B092B87
:1048B00000F28C80052BC4BF043B2293229BC8BF0F
:1048C0000024A3F10203D8BF0124032B00F28A8045
:1048D000DFE803F02D4F4D5BDDE916431C4404F285
:1048E0003243202BC3BFC3F1400304F2124009FA44
:1048F00003F3C3F12003C6BF26FA00F0184306FAFB
:1049000003F0FBF76FFD0123A1F1F871013C139354
:104910006FE70123B2E70F90B1E7069BA3EB0A0311
:104920000693CAF100030A9300230E93BEE7002307
:104930000B93239B002B58DC4FF001094B46CDF81D
:104940002090CDF88C900022686A4260042202F127
:1049500014069E4241684ED9284600F0D7FC0390C9
:1049600000284CD102464FF4D571174BCCE60123F9
:10497000DEE700230B93239B0AEB030909F10103F4
:10498000012B0893B8BF0123DDE70123F2E700BF45
:1049900061436F63A787D23FB3C8608B288AC63F45
:1049A000FB799F501344D33F316B0008486B0008DC
:1049B0000000F07F2D6B0008246B0008016B0008DD
:1049C0000000F83F386C0008A36B000801240023A6
:1049D0000B9422934FF0FF3900221223CDF8209040
:1049E0002392B0E701230B93F4E7DDF88C904B465C
:1049F000CDF82090A7E7013141605200A7E76B6A2C
:104A0000039A1A60089B0E2B00F2A880002C00F07D
:104A1000A580BAF1000F34DD9A4A0AF00F0302EBC9
:104A2000C3031AF4807FD3E90034CDE910344FEA90
:104A30002A1416D0DDE90C01934B0327D3E9082390
:104A4000FBF774FECDE9040104F00F048E4E54B957
:104A5000DDE91023DDE90401FBF768FECDE904017F
:104A600029E00227F2E7E10708D5DDE91001D6E9E0
:104A70000023FBF731FDCDE9100101376410083642
:104A8000E5E700F0A580DDE90C01CAF100047D4BEB
:104A900004F00F0203EBC203D3E90023FBF71CFD74
:104AA00002270023CDE90401774E2411002C40F0A9
:104AB0008480002BD2D10F9B002B00F08B80DDE98E
:104AC0000434CDE91034DDE9100100226F4BFBF70F
:104AD00075FF00287ED0089B002B7BD0B9F1000F1A
:104AE00038DDDDE910010022694BFBF7F5FC4C468F
:104AF000CDE904010AF1FF3801373846FBF782FCA3
:104B0000DDE90423FBF7E8FC0022624BFBF72EFBF8
:104B1000A1F15076CDE910011196002C5DD1DDE9AF
:104B2000040100225C4BFBF71FFB02460B46CDE95C
:104B300004233346109AFBF75FFF002840F09C8265
:104B4000DDE90401109A06F10043FBF737FF002866
:104B500040F09082DDE90C34CDE90434179B002B42
:104B6000C0F25281BAF10E0F00F34E81454B03EBB8
:104B7000CA03D3E90034CDE90634239B002B80F22D
:104B8000DB80089B002B00F3D78040F07282DDE9C8
:104B900006010022404BFBF79FFCDDE90423FBF7F5
:104BA00021FF089C2646002840F048823123039FBD
:104BB0000AF1010A07F8013B44E2E20705D5D6E90C
:104BC0000023FBF789FC01230137641008366DE7E9
:104BD000022770E7D046089C8FE70399294B2144B0
:104BE00012910B9903EBC403DDE9106753E902232B
:104BF000002955D000202949FBF798FD3B46324655
:104C0000FBF7B2FACDE91001039FDDE90401FBF7E0
:104C100013FF0446FBF7F6FB02460B46DDE90401F1
:104C2000FBF7A2FA02460B463034CDE90423DDE956
:104C3000102307F8014BFBF7C1FE002874D1DDE912
:104C4000042300201149FBF78FFADDE91023FBF75D
:104C5000B5FE002840F0B780129B9F423FF47AAF28
:104C6000DDE9100100220A4BFBF736FC0022CDE9FA
:104C70001001DDE90401064BFBF72EFCCDE9040130
:104C8000C3E700BF386C0008106C00080000F03F5C
:104C90000000244000001C40000014400000E03FE1
:104CA00030463946FBF718FC129BCDE91001039CF6
:104CB0001493DDE90401FBF7BFFE1590FBF7A2FB9F
:104CC00002460B46DDE90401FBF74EFA159B06464A
:104CD000303304F8013B129B0F469C424FF0000218
:104CE00024D1DDE91001B04BFBF740FA02460B4638
:104CF00030463946FBF780FE002863D1DDE91023FA
:104D00000020A949FBF730FA02460B4630463946E7
:104D1000FBF754FE00283FF41DAF149F7B1E149335
:104D200017F8013C302BF8D0C2463BE09F4BFBF715
:104D3000D3FBCDE90401BCE7039FDDE90489DDE98C
:104D4000062340464946FBF7F1FCFBF775FE044697
:104D5000FBF758FBDDE90623FBF7BEFB02460B46DB
:104D600040464946FBF700FA04F1300607F8016BAC
:104D7000039EDDF820C0BE1BB44502460B4636D16B
:104D8000FBF7F4F9DDE9062380468946FBF734FE9C
:104D900058BBDDE9062340464946FBF705FE08B14E
:104DA000E10722D42846594600F0F0FA00233B7070
:104DB000249B0AF101001860269B002B3FF4DEAC17
:104DC0001F60DBE427463B461F4613F8012D392AB6
:104DD00007D1039A9A42F7D13022039908F10108CA
:104DE0000A701A7801321A709EE7D046EBE700226B
:104DF0006E4BFBF771FB0022002380468946FBF7D0
:104E0000D3FD00289BD0CDE70B9A002A00F0D0807C
:104E1000229A012A00F3AE80139A002A00F0A6809D
:104E200003F233430A9C069F069A01211A44069214
:104E3000099A28461A44099200F05EFB0646002FA4
:104E40000CDD099B002B09DDBB42A8BF3B46069A3F
:104E5000FF1AD21A0692099AD31A09930A9BF3B140
:104E60000B9B002B00F0A880002C10DD3146224661
:104E7000284600F0FFFB5A4601460646284600F049
:104E800051FB80465946284600F080FAC3460A9BEB
:104E90001A1B04D05946284600F0ECFB834601213A
:104EA000284600F029FB0E9B0446002B40F3868029
:104EB0001A460146284600F0DDFB229B0446012BE2
:104EC0007FDD4FF00008236904EB8303186900F0CD
:104ED000C5FAC0F12000099B184410F01F0000F033
:104EE0009280C0F12003042B40F38A80C0F11C00A3
:104EF000069B074403440693099B03440993069BBE
:104F0000002B05DD59461A46284600F00DFC834665
:104F1000099B002B05DD21461A46284600F004FCBB
:104F200004460F9B002B70D02146584600F06CFCC5
:104F300000286ADA002359460A22284600F048FA77
:104F40000B9B83460AF1FF3A002B00F09481314617
:104F500000230A22284600F03BFAB9F1000F06466A
:104F600000F39380229B022B57DC8EE0169BC3F14B
:104F7000360357E7089B5C1E0A9BA342B7BF0A9BF8
:104F80001C1BE21A0E9BBEBF0A949B180E93089B33
:104F9000B8BF0024002BBBBF069B089A069F9F1A30
:104FA000ACBF089B00233FE70000E03F0000244027
:104FB0000A9C069F0B9E42E70A9A6BE7229B012BF5
:104FC00019DC049BBBB9059BC3F313039BB9059B79
:104FD00023F000431B0D1B0583B14FF00108069B16
:104FE00001330693099B013309930E9B002B7FF439
:104FF0006AAF01206FE74FF00008F6E79846F4E744
:105000003FF47DAF18461C3072E7089B002B36DC5E
:10501000229B022B33DDDDF82090B9F1000F0DD17A
:1050200021464B460522284600F0D2F901460446A7
:10503000584600F0E9FB00283FF7B8AD239B039FDB
:105040006FEA030A4FF000082146284600F09EF957
:10505000002E3FF4A7AEB8F1000F05D0B04503D045
:105060004146284600F092F93146284600F08EF974
:1050700098E600242646E1E7C246264696E50B9BC5
:10508000DDF82090002B00F0FD80002F05DD31467B
:105090003A46284600F048FB0646B8F1000F5CD0BF
:1050A0002846716800F032F9074628B9024640F2F6
:1050B000EA217F4BFFF728BB326906F10C0102326F
:1050C00092000C3000F014F901223946284600F015
:1050D0002BFBB0460646039B01330893039B4B44CE
:1050E0000A93049B03F001030993089B2146013BAB
:1050F00058460493FFF768FA03464146303306905A
:1051000058460B9300F080FB3246814621462846E4
:1051100000F096FBC26807460B9B02BB014658464F
:1051200000F072FB02460B9B39462846CDE90B3254
:1051300000F02CF9229B0C9A089F43EA0201099B7C
:105140000B430B9B0DD1392B29D0B9F1000F01DD99
:10515000069B3133049A137076E73046B9E7012293
:10516000E2E7B9F1000F06DB229941EA0909099942
:1051700059EA010120D1002AECDD594601222846D6
:10518000089300F0D1FA2146834600F03DFB002849
:10519000089B02DCDED1DA07DCD5392BD8D13923E4
:1051A000049A13703B461F4617F8012C013B392A1D
:1051B00050D001321A7047E7002A03DD392BEED0B8
:1051C0000133C7E7089A0A9902F8013C8A422AD0BB
:1051D000594600230A22284600F0FAF8B0458346D3
:1051E0004FF000034FF00A024146284607D100F075
:1051F000EFF880460646089B0133089375E700F0F8
:10520000E7F83146804600230A22284600F0E0F8FD
:105210000646F0E7B9F1000FCCBF4F4601274FF02B
:105220000008039A1744594601222846089300F0C3
:105230007BFA2146834600F0E7FA0028B2DC02D16F
:10524000089BDB07AED43B461F4613F8012D302ADE
:10525000FAD0F9E6039A9A42A5D131230AF1010A5C
:1052600079E7144BFFF7A8BA269B002B7FF481AA9D
:10527000114BFFF7A1BAB9F1000F03DC229B022BFF
:105280003FF7CBAE039F21465846FFF79DF9039A9F
:1052900000F1300307F8013BBA1A9145BADD5946CF
:1052A00000230A22284600F093F88346EBE700BF6C
:1052B000A36B0008006B0008246B000800487047CF
:1052C00060010020024B0146186800F01DBC00BFC1
:1052D0000C000020034610B5C9B2024493421846A0
:1052E00001D1002003E0047801338C42F6D110BDD7
:1052F0000A44914200F1FF3300D1704710B511F814
:10530000014B914203F8014FF9D110BD70B5466AC7
:1053100004460D4676B91020FFF7D4FF02466062BE
:1053200020B96621174B184800F0CEFDC0E9016690
:105330000660C660666AF36883B1636ADB6853F827
:105340002500B8B9012101FA05F6721D2046920028
:1053500000F05EFB60B1C0E901560EE0212204219D
:10536000204600F055FB636AF060DB68002BE4D157
:10537000002070BD026843F825200023C0E90333F4
:10538000F7E700BF316B0008B46B000870B5466AE0
:1053900005460C4676B91020FFF794FF0246686276
:1053A00020B98A21084B094800F08EFDC0E901664A
:1053B0000660C6603CB16B6A6268DB6853F8221015
:1053C000216043F8224070BD316B0008B46B0008C7
:1053D0002DE9F04107460C461E4600200D6901F1FB
:1053E000140CDCF80030013099B202FB01611E0C94
:1053F0000B0C02FB063389B201EB034185424FEAF5
:1054000013464CF8041BECDC0EB3A368AB4219DC6A
:10541000616838460131FFF779FF804628B90246B6
:10542000B5210C4B0C4800F04FFD226904F10C0132
:10543000023292000C30FFF75BFF21463846FFF73F
:10544000A5FF444604EB850301355E6125612046D6
:10545000BDE8F081A36B0008B46B0008020C1204D5
:105460000346CAB90304102013F07F4F04BF1B0288
:10547000083013F0704F04BF1B01043013F0404F8D
:1054800004BF9B000230002B05DB13F0804F00F1BE
:10549000010008BF202070470020E5E703680246AE
:1054A00013F007000BD0D90721D4980749BF5B0838
:1054B0009B08012013605CBF02201360704799B203
:1054C00009B910201B0CD9B209B908301B0A1907F9
:1054D00004BF1B090430990704BF9B080230D90799
:1054E00003D45B0800F1010003D013607047002073
:1054F000704720207047000010B50C460121FFF7CF
:1055000005FF024628B94FF4A071044B044800F08F
:10551000DBFC01234461036110BD00BFA36B0008E5
:10552000B46B00082DE9F04F91460A69D9F81030A4
:105530000C469A42BEBF0B464C4699462769D9F89D
:1055400010A0A368616807EB0A06B34285B0B8BF34
:105550000131FFF7DBFE30B9024640F25D11434BEB
:10556000434800F0B1FC00F114052B46002205EB86
:105570008608434521D304F1140303EB870709F19F
:10558000140303EB8A0202923A1B153A22F003023B
:10559000043204F115018F4238BF04220192029AAD
:1055A00003939A420CD8002E03DD58F8043D002BDB
:1055B00059D0066105B0BDE8F08F43F8042BD8E759
:1055C000B3F800A0BAF1000F23D0A9464FF0000CA9
:1055D00004F1140E5EF8042BD9F800101FFA82FBB8
:1055E00089B20AFB0B116144D9F800C0120C4FEAD2
:1055F0001C4C0AFB02C202EB114289B241EA024191
:1056000077454FEA124C49F8041BE3D8019A45F854
:1056100002C0039A0433B2F80290B9F1000F20D00F
:10562000AE464FF0000A296804F1140CBCF800B033
:10563000BEF8022089B209FB0B22924441EA0A41DA
:105640004EF8041B5CF8042BBEF80010120C09FB8A
:105650000211674501EB1A414FEA114AE6D8019A57
:10566000A95004359BE7013E9DE700BFA36B0008EE
:10567000B46B00082DE9F843154612F00302064604
:105680000F4607D0254C013A002354F82220FFF79B
:105690009FFE0746AD103DD0746A7CB91020FFF71D
:1056A00011FE0246706228B94FF4D7711C4B1D4899
:1056B00000F00AFCC0E901440460C460D6F824800C
:1056C000D8F808404CB940F271213046FFF714FF7A
:1056D00000230446C8F8080003604FF00009EB07F8
:1056E0000AD5394622463046FFF71CFF8046394628
:1056F0003046FFF74BFE47466D100BD0206838B997
:10570000224621463046FFF70DFF2060C0F800908A
:105710000446E4E73846BDE8F88300BF006D0008A2
:10572000316B0008B46B00082DE9F0470C460746C2
:1057300091462369496803EB6218A3684FEA621A2D
:1057400008F10106B3420BDB3846FFF7DFFD0546E3
:1057500048B9024640F2D911294B2A4800F0B4FB5F
:1057600001315B00EEE7002300F1140100F11002AB
:105770001846534537DB20692AEAEA7A04F1140314
:1057800019F01F0901EB8A0103EB80002FD08A4634
:105790004FF0000CC9F1200E1A6802FA09F242EA31
:1057A0000C024AF8042B53F8042B984222FA0EFC00
:1057B000F2D8031B153B23F00303043304F1150255
:1057C000904238BF042341F803C0BCF1000F01D060
:1057D00008F10206013E384621462E61FFF7D6FD4C
:1057E0002846BDE8F08742F8040F0133C1E70439C9
:1057F00053F8042B984241F8042FF9D8EAE700BF88
:10580000A36B0008B46B000803460A69006930B551
:10581000801A0DD11433143103EB820401EB8201A1
:1058200054F8045D51F8042D954202D004D30120B0
:1058300030BDA342F4D3FBE74FF0FF30F8E70000A0
:105840002DE9F84F0D460746114628461446FFF746
:10585000DBFF061E11D131463846FFF757FD0246E1
:1058600028B940F232213A4B3A4800F02DFB01238F
:10587000C0E904361046BDE8F88FA4BF23462C4685
:1058800038466168A6BF1D4600260126FFF73EFD8B
:10589000024618B94FF410712D4BE5E702F11408D8
:1058A000C2464FF0000C2769C6602E6904F114004F
:1058B00005F1140900EB870E09EB8606103454F845
:1058C00004BF59F8043B1FFA8BF18C4499B21B0CAE
:1058D000ACEB0101C3EB1B4303EB214389B24FEA5D
:1058E000234C4E4541EA03434AF8043BE7D8731B77
:1058F000153B23F0030315350433AE4238BF0423B0
:10590000184443441E46054675450ED30EF1030167
:10591000091A21F003010338864538BF00211944D4
:1059200051F8043D8BB11761A4E755F8048B1FFAB9
:1059300088F161440C1404EB184489B241EA044133
:105940004FEA244C46F8041BDEE7013FE8E700BFBE
:10595000A36B0008B46B00082DE9F3410121DDE9D8
:10596000087690461D46FFF7D1FC044630B9024642
:1059700040F20A31244B254800F0A6FAC5F3130380
:10598000C5F30A552DBB0193B8F1000326D0684634
:105990000093FFF783FD0099F0B1019AC0F1200355
:1059A00002FA03F30B43C24063610192019B002B97
:1059B00014BF02210121A3612161C5B1A5F23345C4
:1059C0000544C0F135003D603060204602B0BDE8BE
:1059D000F08143F48013D6E76161E7E701A8FFF7A0
:1059E0005DFD0121019B216163612030E5E704EB4E
:1059F0008103A0F2324038601869FFF72FFDC0EB39
:105A000041113160E1E700BFA36B0008B46B0008EF
:105A100070B5A1FB025434B9294600F075F806466A
:105A200028B9304670BD0C2200260260F9E72A46EC
:105A30002146FEF741F9F4E738B50546002940D084
:105A400051F8043C0C1F002BB8BFE41800F098FA82
:105A50001C4A136833B9636014602846BDE83840B7
:105A600000F094BAA34208D9206821188B4201BFE4
:105A700019685B6809182160EDE71A465B680BB18D
:105A8000A342FAD911685018A0420BD120680144F2
:105A9000501883421160E0D118685B6801441160BE
:105AA0005360DAE702D90C232B60D6E7206821186F
:105AB0008B4201BF19685B680918216063605460FC
:105AC000CBE738BDF402002070B50E4E0C463168AD
:105AD000054611B900F0E8F930602146284600F08B
